S01F00004576656E5F416E6F746865725F5350495F50726F6A6563742E73333796
S11300000000022091010000BD010000BD010000BC
S1130010BD010000BD010000BD010000BD010000E4
S1130020BD010000BD010000BD010000BD010000D4
S1130030BD010000BC010000BD010000BD010000C5
S113004085190000D522000039370000BD010000E9
S1130050BD010000BD010000BD010000BD010000A4
S1130060BD010000BD010000BD010000FD22000033
S1130070BD010000BD010000BD010000BD01000084
S1130080BD010000BD010000BD010000BD01000074
S1130090BD010000BD010000BD010000BD01000064
S11300A0BD010000BD010000BD010000BD01000054
S11300B0BD010000BD010000AD2B0000BD0100002A
S11300C0BD010000BD010000BD010000BD01000034
S11300D0BD010000BD010000BD01000010B5054CCC
S11300E0237833B9044B13B10448AFF300800123E0
S11300F0237010BD0001002000000000483B0000F8
S113010008B5034B1BB103490348AFF3008008BD96
S11301100000000004010020483B0000154B002BA8
S113012008BF134B9D46A3F5803A00218B460F462A
S11301301348144A121A03F0D5FC0F4B002B00D0BD
S113014098470E4B002B00D0984700200021040054
S11301500D000D48002802D00C48AFF3008003F0D6
S11301609DFC2000290002F01BF903F083FC00BF72
S11301700000080000000220000000000000000051
S113018000010020700600200000000000000000B4
S1130190064880470649074A074B9A42BEBF51F8B2
S11301A0040B42F8040BF8E7FFF7B8FF2103000043
S11301B0543B0000000000207C000020FEE700BF4C
S11301C080B400AF034BDB6C1B0EDBB21846BD469C
S11301D080BC7047B081E00F80B582B000AF00F002
S11301E01FF87860074B5B6803F00F037A6822FA04
S11301F003F37B60044A7B6813607B681846083706
S1130200BD4680BD00800C400800002080B400AFD3
S1130210024B1846BD4680BC704700BF006CDC0230
S113022080B582B000AF334BDB6A03F47053B3F58F
S1130230805F0AD0B3F5005F03D0B3F5006F08D038
S11302400BE02D4B1B687B6047E04FF400437B6061
S113025043E02A4B1B687B603FE0264BDB6803F4DA
S1130260E063B3F5007F1BD0B3F5007F05D8002B06
S113027024D0B3F5807F16D02BE0B3F5806F09D07E
S1130280B3F5A06F03D0B3F5407F06D021E01C4B3B
S11302907B6021E01B4B7B601EE01B4B7B601BE003
S11302A01A4B7B6018E0FFF78BFF0346122B02D931
S11302B0174B7B6010E0174B7B600DE0FFF780FF6E
S11302C00346122B02D9144B7B6005E0134B7B6071
S11302D002E000237B6000BF00BF064B1B689B0B42
S11302E003F0070301337A68B2FBF3F318460837C7
S11302F0BD4680BD00800C400400002000000020AA
S1130300003FAB01406F4001809FD500C0D8A700DB
S113031040B56400C0CF6A00804F120040420F0015
S113032080B400AF034B044A9A6000BFBD4680BC52
S1130330704700BF00ED00E00000000080B400AF93
S11303404FF400431846BD4680BC704780B400AFEC
S11303504FF47A731846BD4680BC704780B400AF32
S1130360024B1B681846BD4680BC70470400002041
S113037080B483B000AF03463960FB7197F907304E
S1130380002B0ADB3B68DAB20C4997F907305201BB
S1130390D2B20B4483F800230AE03B68DAB208497E
S11303A0FB7903F00F03043B5201D2B20B441A76DB
S11303B000BF0C37BD4680BC704700BF00E100E0C1
S11303C000ED00E080B584B000AF78603960254B63
S11303D01B7883F00103DBB2002B01D0224B3DE0FC
S11303E07B68002B01D1214B38E001F035F9B8606E
S11303F00023FB602BE01E49FA6813469B0013445C
S11304009B000B4410331B7883F00103DBB2002BF9
S11304101AD0FA687B681A601549FA6813469B007B
S113042013449B000B44103301221A701049FA68DC
S113043013469B0013449B000B4400221A60B868C7
S113044001F019F9002309E0FB680133FB60FB6844
S11304500B2BD0DDB86801F00EF9064B18461037A7
S1130460BD4680BD1C010020028000F0018000F028
S113047020010020048000F080B584B000AF01F0BA
S1130480EBF8B860194B1B78002B04D0B86801F066
S1130490F2F8174B25E0154B01221A70B86801F0E9
S11304A0EAF80023FB600CE01249FA6813469B004B
S11304B013449B000B44103300221A70FB68013371
S11304C0FB60FB680B2BEFDD04210020FFF750FFDE
S11304D000233B70084B7B603B46184601F08EFBC3
S11304E0002318461037BD4680BD00BF1C01002004
S11304F0038000F0200100200004002080B58CB0AF
S113050008AFF860B9607A603B60BB6A07937B6AA6
S1130510069397F820300593FB6904933B7E03937D
S1130520002302933B6801937B680093BB68FA68DD
S11305300021002000F08CF8034618461037BD4611
S113054080BD80B58CB008AFF860B9607A603B605C
S1130550BB6A07937B6A069397F820300593FB697F
S113056004933B7E0393002302933B6801937B68CF
S11305700093BB68FA680121002000F069F8034683
S113058018461037BD4680BD80B586B000AFF86010
S11305900B467A60FB72FA6813469B0013449B0077
S11305A00B4A13447B617B691B68002B0CD07B696D
S11305B09B685A1C7B699A607B691B687A6991689D
S11305C07A695268F868984700BF1837BD4680BDFD
S11305D02001002080B58AB004AFF8600B467A6031
S11305E0FB720123FB75FA6813469B0013449B00BE
S11305F0164A13443B613B691B68002B12D03B69CC
S11306009B685A1C3B699A603B691B683A6991680C
S11306103A695268F86898470346002B0CBF0123D7
S11306200023FB753B69DB68013B1A46F97AFB7DC5
S1130630029301920023009300230022F86801F042
S113064007FB00BF1837BD4680BD00BF2001002056
S113065080B58EB004AFBA607B600346FB730B4673
S1130660BB73844B1B7883F00103DBB2002B01D0F6
S1130670814BFAE0BB680B2B0FD83B6B002B0CD0E3
S11306807B6B002B09D03B6CB3F5806F05DCFB7BE7
S1130690012B04D1BB6B002B01D1784BE5E0BA6888
S11306A013469B0013449B00754A13447B627B6A88
S11306B01B7C83F00103DBB2002B01D0714BD4E02F
S11306C0FB7B002B09D17049BA6813465B001344C5
S11306D09B000B446D4A1A6008E06B49BA681346E4
S11306E05B0013449B000B44694A1A606649BA686C
S11306F013465B0013449B000B44043300221A602E
S113070000233B76BB6C002B02D1FB7B012B02D177
S113071001237B7601E000237B767B68FB61BA686A
S113072013465B0013449B00574A13443B6207F192
S113073018031946B86801F0E3F9BB7B002B19D103
S113074097F83C30002B10D097F84430002B02D19E
S113075000237B740BE097F84430012B02D1012372
S11307607B7404E002237B7401E003237B74032382
S11307703B7418E097F83C30002B10D097F84430C5
S1130780002B02D100233B740BE097F84430012B7B
S113079002D101233B7404E002233B7401E00323F0
S11307A03B7403237B7497F84430BB740023FB74BD
S11307B000233B7507F110031A460121B86801F0C4
S11307C0E5F9FB7B012B06D107F110031A46002142
S11307D0B86801F0DBF97B6ABA6C1A607B6AFA6C60
S11307E05A607B6A00229A607B6A3A6CDA60012262
S11307F0BB689A40274B03F5805308331A60FB7B90
S1130800002B0BD13B6C013B01937B6B00933B6B47
S113081000220121B86801F023F925E0BB7B002BFD
S113082011D13B6C013B1A463B6C013B0393BB6B00
S113083002933B6B019300927B6B3A6B0021B86887
S113084001F030F910E03B6C013B1A463B6C013B74
S11308500393BB6B02937B6B01930092BB6B3A6B6C
S11308600021B86801F01EF9002318462837BD4658
S113087080BD00BF1C010020028000F0018000F058
S113088020010020078000F01002002089050000EC
S1130890D505000000200C4080B487B000AFF8609C
S11308A0B9607A60FB6803F10473DA00BB6813442F
S11308B09B007B617B697A681A6000BF1C37BD4668
S11308C080BC704780B485B000AF786039607B68C5
S11308D003F10473DA003B6813449B00FB60FB687C
S11308E01B6818461437BD4680BC704780B483B07B
S11308F000AF786001227B6802FA03F318460C37D4
S1130900BD4680BC704780B485B000AF78607B681A
S1130910002B03D07B68B3F5004F00BF7B68B3FAAC
S113092083F3DBB2C3F11F03FB60FB681846143783
S1130930BD4680BC7047000080B400AF034BDB6C45
S11309401B0EDBB21846BD4680BC7047B081E00F79
S113095080B400AF034BDB6C1B0CDBB21846BD4606
S113096080BC7047B081E00F80B582B000AFFFF764
S1130970EFFF03464A2B04D0792B02D0482B23D017
S113098024E0154B1B699BB21B029BB203F47C53FE
S1130990FB80114B9B691B091B0103F0F0039AB206
S11309A0FB881343FB800C4BDB691B0903F00F032B
S11309B09AB2FB881343FB80FB88B3F5017F01D314
S11309C0064B04E0064B02E0054B00E0002318460A
S11309D00837BD4680BD00BFD0FF0FE000366E0172
S11309E00048E80180B584B000AF78600123FB6063
S11309F0FFF7BAFF02467B68934204D80023FB60EA
S1130A000023BB600BE0FFF7AFFF03465B007A688F
S1130A109A4202D80123BB6001E00223BB60FA685A
S1130A201E210848FFF738FF064B5B6823F48072E9
S1130A30BB681B02034913434B6000BF1037BD461C
S1130A4080BD00BF00800C4080B582B000AF1E2185
S1130A500448FFF737FF78607B6818460837BD46BF
S1130A6080BD00BF00800C4080B582B000AF214B38
S1130A705B6903F4E063B3F5007F1CD0B3F5007F3A
S1130A8005D8002B25D0B3F5807F1FD02AE0B3F51D
S1130A90C06F24D0B3F5E06F1ED0B3F5407F21D1F1
S1130AA0FFF74AFF0346122B02D9134B7B601CE06D
S1130AB0124B7B6019E0FFF73FFF0346122B02D96C
S1130AC00F4B7B6011E00F4B7B600EE00E4B7B60A5
S1130AD00BE00E4B7B6008E00D4B7B6005E00D4B9B
S1130AE07B6002E000237B6000BF7B681846083708
S1130AF0BD4680BD00800C40804F120040420F0074
S1130B0040B56400C0CF6A00C0D8A700809FD5005C
S1130B10406F4001003FAB0180B582B000AF0D488B
S1130B2000F0C6FC0346FB70FB78072B05D0092BAD
S1130B3007D1FFF775FB786006E0FFF795FF786053
S1130B4002E000237B6000BF7B6818460837BD467F
S1130B5080BD00BF06000E0080B485B000AF786091
S1130B603960204B5B6803F00703FB60FB68012BD3
S1130B7001D9042B02D10023FB7202E00123FB7292
S1130B8000BF7B68184A934207D9FB7A002B01D037
S1130B90052300E00423FB6016E07B68124A9342BD
S1130BA00BD87B68114A934207D9FB7A002B01D0FA
S1130BB0032300E00123FB6006E0FB7A002B01D055
S1130BC0022300E00023FB60064B5B6823F007026E
S1130BD00449FB6813434B6000BF1437BD4680BC17
S1130BE0704700BF00000C400048E8010024F400F6
S1130BF080B582B000AF0E4BDB6B002B14BF01231A
S1130C000023FB710A4B41F67132DA63FFF7FEFAF7
S1130C10034600211846FFF79FFFFB79002B02D003
S1130C20034B0022DA6300BF0837BD4680BD00BF16
S1130C3000000C4080B584B000AF786039600C4B84
S1130C40DB6B002B14BF01230023FB73084B41F61D
S1130C507132DA6339687868FFF77EFFFB7B002B1B
S1130C6002D0034B0022DA6300BF1037BD4680BDBB
S1130C7000000C4090B585B000AF78600023BB60E5
S1130C807B68344A934203D0334A934200D000E055
S1130C9000BF786800F00CFC0346FB607B682D4ABB
S1130CA0934203D02C4A934206D00CE02B4B9B6A10
S1130CB003F00303FB6006E0284B9B6A9B0803F0E8
S1130CC00303FB6000BFFB68032B39D801A252F871
S1130CD023F000BF0B0D0000E50C0000ED0C00003C
S1130CE0F50C0000FFF72AFBB8602DE0FFF736FB98
S1130CF0B86029E0FFF770FA0446FFF7A5FE034643
S1130D00013324FA03F3BB601EE00023BB607B685D
S1130D10104A934203D07B680F4A934213D10F4B7E
S1130D209A6A7B680B498B4201D1102300E014239B
S1130D3022FA03F3002B06D0FFF708FBB86002E0A9
S1130D400023BB6000E000BFBB6818461437BD46F3
S1130D5090BD00BF02001E000300200000800C4074
S1130D6080B483B000AF7860094B5B6D03F001037E
S1130D70002B07D100BF064B1A6D7B681340002B74
S1130D80F9D100E000BF0C37BD4680BC704700BFFE
S1130D9000800C4080B582B000AF104800F088FBA2
S1130DA00346FB70FB78032B07D0092B09D0022BD9
S1130DB00BD1FFF7D3FA78600AE0FFF7BFFA786047
S1130DC006E0FFF72DFA786002E000237B6000BFA5
S1130DD07B6818460837BD4680BD00BF0723260040
S1130DE090B585B000AF78607B681B0903F00F03F2
S1130DF0BB60BB68013B0C2B00F2AE8001A252F831
S1130E0023F000BF390E0000590F0000590F0000F5
S1130E10490E0000590F0000590F00005D0E00003C
S1130E208B0E0000170F0000590F0000590F00002F
S1130E30590F0000710E00004B4B1B689B0B03F015
S1130E4007030133FB608AE0474B9B6803F00F0301
S1130E50FB60F868FFF74AFDF86080E0424B5B688E
S1130E6003F00F03FB60F868FFF740FDF86076E0DD
S1130E703D4B5B681B0A03F00103FB60FB68013315
S1130E801846FFF733FDF86069E07B68374A934200
S1130E9018D0364A934203D8354A934207D036E0F5
S1130EA0344A934219D0344A934226D02FE02E4B31
S1130EB09B6E1B0903F00F03FB60F868FFF716FD38
S1130EC0F86027E0284B9B6E1B0A03F00F03FB60BE
S1130ED0F868FFF70BFDF8601CE0234B9B6E1B0BBF
S1130EE003F003041020FFF70EFD03462344FB60C8
S1130EF0F868FFF7FBFCF8600CE01B4B9B6E03F0FB
S1130F000303FB60F868FFF7F1FCF86002E00123DB
S1130F10FB6000BF23E07B68184A934203D0184A61
S1130F2093420AD014E0104B1B6F03F00303FB60E1
S1130F30F868FFF7DBFCF8600DE00B4B1B6F1B0937
S1130F4003F00303FB60F868FFF7D0FCF86002E0ED
S1130F500123FB6000BF02E00123FB6000BFFB68CC
S1130F6018461437BD4690BD00800C4080261600FC
S1130F708016120080002A0080062E0090071A00B6
S1130F8090171C0090B585B000AF786039607B681D
S1130F901B0903F00F03FB60FB68013B0C2B00F201
S1130FA00F8101A252F823F0DD0F0000C1110000EF
S1130FB0C111000011100000C1110000C111000096
S1130FC059100000AB1000006D110000C1110000A9
S1130FD0C1110000C1110000391000003B68002B52
S1130FE002D03B68082B00BFFFF702FE774B1B685B
S1130FF023F4E0323B68013B9B03744913430B60C9
S1131000FFF7EAF8B8600021B868FFF713FED8E0EC
S11310103B68002B03D03B68B3F5007F00BF386802
S1131020FFF771FC3860694B9B6823F00F02674936
S11310303B6813438B60C4E03868FFF764FC0346E5
S1131040013B3B60614B5B6823F480723B681B028D
S11310505E4913434B60B4E03B68002B03D03B680C
S1131060B3F5007F00BFFFF7C3FDFFF7B5F80246F5
S11310703B68B2FBF3F31846FFF7B4FC3868FFF79C
S113108042FC3860514B5B6823F00F024F493B68C8
S113109013434B60FFF7A0F8B8600021B868FFF76E
S11310A0C9FDB868FFF79EFC8BE07B68484A934211
S11310B01ED0474A934203D8464A934207D054E08D
S11310C0454A934225D0454A93423ED04DE0042000
S11310D0FFF746FE3868FFF716FC38603B4B9B6E03
S11310E023F0F0023B681B01384913438B663CE054
S11310F00420FFF735FE3868FFF705FC3860334BF2
S11311009B6E23F470623B681B02304913438B6669
S11311102BE03B680F2B02D93B68802B00BF0420D7
S1131120FFF71EFE3868FFF7EEFB3860274B9B6E17
S113113023F440541020FFF7E6FB02463B689B1A59
S11311401B03224A234393660FE00420FFF708FEA3
S11311503868FFF7D8FB38601C4B9B6E23F0030202
S11311601A493B6813438B6600BF2AE07B681C4A1C
S1131170934203D01B4A934210D020E04020FFF753
S1131180EFFD3868FFF7BFFB3860104B1B6F23F08F
S113119003020E493B6813430B6710E04020FFF73E
S11311A0DFFD3868FFF7AFFB3860084B1B6F23F097
S11311B030023B681B01054913430B6700BF00E085
S11311C000BF00BF1437BD4690BD00BF00800C4077
S11311D0802616008016120080002A0080062E0049
S11311E090071A0090171C0080B586B000AF786095
S11311F00B46FB7000233B617B681B0A03F00F0363
S1131200013B092B44D801A252F823F047120000F5
S11312104D120000351200009112000091120000DE
S1131220531200005D1200009112000091120000A0
S113123067120000184B7B61FEF7CEFF0346184689
S1131240FFF7D0FB12E0154B7B610FE0144B7B6181
S11312500CE0144B7B6101233B6107E0124B7B6183
S113126010233B6102E0114B7B6100BF7B681B0BC9
S113127003F01F03FB603B69002B02D03869FFF7C2
S11312806FFDFB781A46F9687869FFF705FB00E003
S113129000BF1837BD4680BD40800C4008800C401C
S11312A044800C4058800C4060800C4078800C4096
S11312B090B585B000AF78607B6803F47813B3F51C
S11312C0D01F00F0B480B3F5D01F1AD8B3F5602F47
S11312D000F0C880B3F5602F08D8B3F5003F45D0BF
S11312E0B3F5802F36D0002B30D0D2E0B3F5901F69
S11312F045D0B3F5B01F50D0B3F5801F00F0B680D1
S1131300C7E0B3F5181F00F0B580B3F5181F0BD86C
S1131310B3F5F01F2ED0B3F5001F00F08380B3F5B2
S1131320E01F00F09180B4E0B3F5301F56D0B3F560
S1131330301F03D8B3F5281F3DD0AAE0B3F5381FFA
S113134063D0B3F5781F00F09980A2E0FEF768FF40
S1131350F860A1E0FEF764FFF860524B9B6803F06D
S11313600F03FA6822FA03F3FB6095E0FEF734FFFB
S1131370F86091E04C48FFF77DFCF8608CE04A4847
S1131380FFF778FCF860474B9B6E1B0903F00F03D3
S1131390FA6822FA03F3FB607EE04348FFF76AFC35
S11313A0F860404B9B6E1B0A03F00F03FA6822FAA5
S11313B003F3FB6070E03C48FFF75CFCF860394BDA
S11313C09B6E1B0B03F003041020FFF79CFA0346EB
S11313D02344FA6822FA03F3FB605DE03248FFF726
S11313E049FCF8602F4B9B6E1B0B03F00303FA6858
S11313F022FA03F3FB602B4BDB6F03F0070301338B
S1131400FA68B2FBF3F3FB6046E02748FFF732FCCF
S1131410F860244B9B6E03F00303FA6822FA03F38B
S1131420FB6039E02148FFF725FCF86034E01F48F1
S1131430FFF720FCF8601B4B1B6F03F00303FA68F3
S113144022FA03F3FB6027E01848FFF713FCF86067
S1131450144B1B6F1B0903F00303FA6822FA03F30E
S1131460FB6019E0FFF758FBF86015E0FFF7FCFAA2
S1131470F86011E0FFF78EFCF8600DE0FEF7ACFEBB
S113148004467868FFF7ACFC0346B4FBF3F3FB6057
S113149002E00023FB6000BFFB6818461437BD461A
S11314A090BD00BF00800C4002001E00030020001D
S11314B080B485B000AF78600123FB737B6803F0D0
S11314C00F03BB60BB68013B062B00F2938001A2B3
S11314D052F823F0F11400002715000063150000F2
S11314E0F5150000F51500009F150000C11500005A
S11314F0454BDB6A03F47053B3F5805F09D0B3F551
S1131500005F03D0B3F5006F06D008E00223FB733D
S113151008E00323FB7305E00423FB7302E00523C7
S1131520FB7300BF69E0384B9B6A03F00303022B93
S113153006D0032B07D0012B08D10323FB730FE044
S11315400223FB730CE00623FB7309E02E4B9B6A1A
S113155003F48033002B02D00A23FB7300E000BFA6
S11315604BE0294B9B6A03F00C03082B06D00C2B91
S113157007D0042B08D10323FB730FE00223FB7372
S11315800CE00623FB7309E01F4B9B6A03F48013F2
S1131590002B02D00A23FB7300E000BF2DE01A4B9E
S11315A01B6803F08053002B03D0B3F1805F03D09A
S11315B023E00723FB7302E00923FB7300BF1CE055
S11315C0114BDB6A03F46033B3F5803F08D0B3F505
S11315D0003F08D0B3F5004F08D10923FB7308E09E
S11315E00223FB7305E00323FB7302E00123FB7377
S11315F000BF02E00023FB7300BFFB7B18461437D7
S1131600BD4680BC704700BF00800C4080B483B0EE
S113161000AF0346FB7197F90730002B09DB0C4A36
S113162097F90730134493F80033DBB25B09DBB25C
S113163009E0084AFB7903F00F03043B13441B7EC3
S1131640DBB25B09DBB218460C37BD4680BC704781
S113165000E100E000ED00E080B483B000AFEFF300
S113166010833B603B687B6072B67B6818460C371E
S1131670BD4680BC704780B483B000AF78607B689F
S1131680002B00D162B600BF0C37BD4680BC70474A
S113169080B588B000AF0346FB7197F9073013F1AA
S11316A00C0F03DB97F90730262B00BFEFF31083F1
S11316B03B613B6903F00103002B01D0012335E0BA
S11316C097F90730184600F037F80346002B01D08D
S11316D001232BE097F907301846FFF797FFF861CD
S11316E0EFF31183FB60FB68BB61BB69002B06D081
S11316F0BB695B09FA699A4201D3012316E00D4BD9
S11317005B68C3F308037B617B69002B0DD07B69A5
S1131710DBB2103BDBB25BB21846FFF777FF024641
S1131720FB69934201D3012300E0002318462037CC
S1131730BD4680BD00ED00E080B485B000AF034637
S1131740FB7197F90730002B03DB97F90730262B41
S113175000BF0C4BFB6097F907305A09FB6853F83C
S11317602220FB7903F01F0322FA03F303F00103A1
S1131770002B0CBF01230023DBB218461437BD46EF
S113178080BC704700E100E080B483B000AF034642
S1131790FB7197F90730002B0BDBFB7903F01F0279
S11317A0064997F907305B09012000FA02F241F873
S11317B0232000BF0C37BD4680BC704700E100E029
S11317C080B483B000AF0346FB7197F90730002B58
S11317D010DBFB7903F01F02094997F907305B0915
S11317E0012000FA02F2203341F82320BFF34F8F87
S11317F0BFF36F8F00BF0C37BD4680BC704700BF7E
S113180000E100E080B483B000AF0346FB7197F9B8
S11318100730002B0CDBFB7903F01F02074997F913
S113182007305B09012000FA02F2603341F82320FB
S113183000BF0C37BD4680BC704700BF00E100E02C
S113184080B487B000AFF860B9607A60FB6803F1D8
S11318500473DA00BB6813449B007B617B697A687C
S11318601A6000BF1C37BD4680BC704780B489B085
S113187000AF7860084611461A460346FB700B46D3
S1131880BB7013467B707B681A013D4B9B68134405
S1131890BB61BB78002B02D0BB69FB6105E07B68B0
S11318A01A01374BDB681344FB61BB69DB687B615E
S11318B07B69002B02D0BA787B691A72FB6A002B11
S11318C014D0FB699B689B0E03F003033B613B69E7
S11318D0032B03D1FB69FA6A1A6007E03A6B3B6990
S11318E09A40FB6A13441A46FB691A60BB6A002BD0
S11318F014D0FB699B689B0F03F003033B613B69B6
S1131900032B03D1FB69BA6A5A6007E03A6B3B695F
S11319109A40BB6A13441A46FB695A6001227B68E9
S113192002FA03F3FB607B78002B03D0144AFB68B4
S1131930936102E0124AFB68D361BB78002B03D0A9
S11319400F4AFB68536302E00D4AFB681363FB69AB
S11319509B6823F47F5323F03703BB603B6B1B016D
S1131960BA681343BB60FB78BA681343BB60FB6976
S1131970BA689A6000BF2437BD4680BC704700BF78
S113198000200C4080B58AB000AF344B03F580537F
S11319901B68BB61314B03F580530C331B68BA6978
S11319A01340BB612D4B9B6B7B61BA697B69134010
S11319B03B620023FB6149E000237B623BE03B6A1E
S11319C003F00103002B30D0244B9B683B610122C0
S11319D07B6A02FA03F3FB60204B03F58053083360
S11319E0FA681A607B6A1B013A691344DB68BB60BE
S11319F0BB68002B19D0BB681B7A7B60BB681B7A61
S1131A0083F00103DAB2BB681A72BB681B68002B4F
S1131A100BD0BB681B68786A7A68002A14BF01225D
S1131A200022D1B2BA68526898473B6A5B083B62AD
S1131A307B6A01337B623B6A002BC0D17B69DB4349
S1131A40BA6913403B62FB690133FB61FB69012BFB
S1131A50B2DD00BF2837BD4680BD00BF00200C406A
S1131A6080B588B004AFF8607B600B46FB72134608
S1131A70BB72B97AFA7AFB690293BB6901937B68FA
S1131A8000930B460121F868FFF7F0FE0122FB6882
S1131A909A40034B9A6200BF1037BD4680BD00BF19
S1131AA000200C4080B588B004AFF8607A603B60D9
S1131AB00B46FB72FA7A7B6A02933B6A0193FB69D9
S1131AC00093134600220321F868FFF7CFFEFA7A49
S1131AD0BB6902933B6801937B6800931346012220
S1131AE00321F868FFF7C2FE0122FB689A40034B0A
S1131AF09A6200BF1037BD4680BD00BF00200C4075
S1131B0080B584B000AF786039601E4B9B68FB6081
S1131B103B6899687B681B01FA6813440A46DA60DB
S1131B203B681B78002B05D001227B689A40154B3B
S1131B309A6304E001227B689A40124BDA631149EC
S1131B403B685A687B6803F5886341F823203B6847
S1131B505B78002B0DD001227B689A40094B03F57A
S1131B60805308331A60012279680748FFF768FE3A
S1131B7004E0002279680448FFF762FE00BF1037D2
S1131B80BD4680BD00200C400C300C4080B487B0B2
S1131B9000AFF8600B467A60FB72FB7A002B03D02F
S1131BA0154B9B687B6102E0134BDB687B61FB6830
S1131BB01B017A6913447B617B681B789A077B68F5
S1131BC09B781B071A437B685B789B061A437B68E8
S1131BD09B781B0613431A467B681B799B041343AB
S1131BE07A68D27892031A437B699A6000BF1C37E3
S1131BF0BD4680BC704700BF00200C4080B582B059
S1131C0000AF786001211048FFF7EEFA00F09EF86B
S1131C100020FFF7F7FD0020FFF7B6FD0B4B03F59F
S1131C2080530C334FF000421A607B685A68074BAC
S1131C309A607B681B785B01044A43F0010353609C
S1131C4000BF0837BD4680BD0003020000200C40E1
S1131C5080B48BB000AFF8607B600B46FB72134618
S1131C60BB7297F83830002B03D0012387F8273054
S1131C7002E0032387F82730FB7A002B06D0FB68A9
S1131C801A01314B9B6813443B6205E0FB681A015F
S1131C902D4BDB6813443B623B6B002B14D03B6A37
S1131CA09B689B0E03F00303FB61FB69032B03D1C9
S1131CB03B6A3A6B1A6007E07A6BFB699A403B6BAC
S1131CC013441A463B6A1A607B68002B14D03B6AA3
S1131CD09B689B0F03F00303FB61FB69032B03D198
S1131CE03B6A7A685A6007E07A6BFB699A407B68C2
S1131CF013441A463B6A5A600122FB6802FA03F352
S1131D00BB61BB7A002B03D00F4ABB69936102E02D
S1131D100D4ABB69D3613B6A9B6823F47F5323F06C
S1131D2037037B617B6B1B017A6913437B6197F8F3
S1131D3027307A6913437B613B6A7A699A6000BFF2
S1131D402C37BD4680BC704700200C4080B582B063
S1131D5000AF0020FFF734FD1C4B00225A601B4BE0
S1131D6040F6FF72DA61194B40F6FF725A62174B64
S1131D7040F6FF72DA62154B40F6FF725A63134B5A
S1131D8040F6FF72DA63114B0122DA640F4B03F55C
S1131D9080530C3300221A600C4B03F58053083334
S1131DA00B4A1A6000237B6009E0084A7B6803F54C
S1131DB08863002142F823107B6801337B607B68D1
S1131DC00B2BF2DD00BF0837BD4680BD00200C4060
S1131DD0FF0F008080B483B000AF03463960FB710D
S1131DE0FB79002B0DD0FB79012B0AD0FB79022B58
S1131DF007D0FB79032B04D0FB79042B01D0FB79AA
S1131E00052B01223B6802FA03F30749FA791846C5
S1131E101346DB0013449B000B441433186000BFCB
S1131E200C37BD4680BC70470060004080B483B06E
S1131E3000AF03463960FB71FB79002B0DD0FB79B1
S1131E40012B0AD0FB79022B07D0FB79032B04D09A
S1131E50FB79042B01D0FB79052B01223B6802FAA4
S1131E6003F30749FA7918461346DB0013449B0031
S1131E700B441033186000BF0C37BD4680BC70475C
S1131E800060004080B584B000AFB9607B60034659
S1131E90FB731346BB73FB7B002B0DD0FB7B012B29
S1131EA00AD0FB7B022B07D0FB7B032B04D0FB7BEC
S1131EB0042B01D0FB7B052BBB7B002B0DD07B6857
S1131EC0002B05D0FB7BB9681846FFF7AFFF04E091
S1131ED0FB7BB9681846FFF77DFFBB68072B20D84A
S1131EE02D49FA7B1346DB0013449B000B44043357
S1131EF01A68BB689B000F2101FA03F3DB4313400C
S1131F00B97BBA68920001FA02F211462248FA7BC0
S1131F1019431346DB0013449B0003440433196044
S1131F2025E01D49FA7B1346DB0013449B000B4458
S1131F3008331A68BB6803F18043083B9B000F21F8
S1131F4001FA03F3DB4302EA0301BA7BBB6803F142
S1131F508043083B9B0002FA03F30F48FA7B1943C2
S1131F601346DB0013449B00034408331960BB7B16
S1131F70002B0DD17B68002B05D0FB7BB96818467C
S1131F80FFF754FF04E0FB7BB9681846FFF722FF14
S1131F9000BF1037BD4680BD0060004080B485B0EE
S1131FA000AF786039607B68002B02D0012B03D02E
S1131FB008E0064BFB6002E0054BFB6000BFFB68DA
S1131FC03A681A601437BD4680BC70470800084060
S1131FD00C00084080B485B000AF78607B681B7843
S1131FE0002B02D00123FB6001E00023FB607B682F
S1131FF05B78002B03D0FB6843F00203FB607B6833
S11320009B78002B03D0FB6843F00403FB60044A75
S1132010FB68136000BF1437BD4680BC704700BF27
S11320200000084080B483B000AF78600B46FB70BA
S1132030FB7843F01003DBB21A467B689A6500BF55
S11320400C37BD4680BC704780B586B000AFF860E1
S1132050B9607A60BB68002B03D10A48FFF728F9FE
S1132060B860BB685A1E7B685B00B2FBF3F37B610C
S11320707B691B027B61FB687A695A6100BF183770
S1132080BD4680BD4081040080B582B000AF786059
S113209039607B68304A934206D07B682F4A93426A
S11320A002D07B682E4A934200BF786800F05AF849
S11320B07B681A683B681B8A43F001039BB219468C
S11320C03B689B7B002B02D04FF4806300E000232D
S11320D00B431A437B681A607B681B683A68127D5D
S11320E0002A02D04FF0005200E000221A437B681D
S11320F01A603B689B7C002B05D03B68DB7C19464F
S11321007868FFF78FFF3B681B7B43F480527B6842
S11321105A603B6859683B689B681A467868FFF7C1
S113212093FF3B685B7B002B02D07B681022DA6054
S11321303B685B7D002B05D07B681B6843F48032D1
S11321407B681A603B681B781A467B68DA6000BFBC
S11321500837BD4680BD00BF00C0004000C4004039
S113216000C8004080B483B000AF78607B68244A24
S113217093420ED07B68234A93420AD07B68224A5A
S1132180934206D07B68214A934202D07B68204A5E
S1132190934200BF7B6840F6AA62DA607B68002243
S11321A01A607B6841F205025A607B6800229A60DB
S11321B07B6800225A617B680022DA647B6841F6FE
S11321C0F9729A647B6800225A657B680C4A9342D0
S11321D002D17B6800221A657B6800229A657B68BD
S11321E0084A934203D07B68074A934202D17B6832
S11321F00022DA6500BF0C37BD4680BC704700BFC3
S113220000C0004000C4004000C8004000E000409E
S113221000E4004080B483B000AF7860044A7B6877
S1132220C2F81C3100BF0C37BD4680BC704700BFEC
S11322300060004080B483B000AF074BD3F8103186
S11322407B60054BD3F814217B68134018460C3788
S1132250BD4680BC704700BF0060004080B485B0BC
S113226000AF78607B68FB60FB6893FAA3F3BB6004
S1132270BB68B3FA83F3DBB218461437BD4680BC9F
S11322807047000080B584B000AF786019E07868CA
S1132290FFF7E4FFF8600122FB6802FA03F3DB4373
S11322A01A467B6813407B60094AFB6852F8233066
S11322B0BB60BB68002B04D0FB68DAB2BB68104675
S11322C098477B68002BE2D100BF1037BD4680BD24
S11322D0A002002080B582B000AFFFF7ABFF02463A
S11322E045F2555313407B607868FFF793FF786895
S11322F0FFF7C8FF00BF0837BD4680BD80B582B078
S113230000AFFFF797FF02464AF6AA2313407B600B
S11323107868FFF77FFF7868FFF7B4FF00BF0837DE
S1132320BD4680BD80B485B000AF786039607B68FD
S113233003F10473DA003B6813449B00FB60FB6801
S11323401B6818461437BD4680BC704780B582B000
S113235000AF03463960FB71FB79002B0DD0FB798C
S1132360012B0AD0FB79022B07D0FB79032B04D075
S1132370FB79042B01D0FB79052BFA791346DB009A
S113238013449B001C3303F1804303F5C0433968B5
S11323901846FFF7C7FF034618460837BD4680BDF9
S11323A0B0B58AB000AF0A2387F82730264B07F16F
S11323B008041D460FCD0FC495E8070084E8070004
S11323C0224B1B6807F108021146184600F058FC1E
S11323D001211F48FEF708FF0023012209210120E3
S11323E0FFF750FD09210120FFF7B0FF0346002B42
S11323F014BF0123002387F8263097F8263083F092
S11324000103DBB2002BEDD00123042202210420BE
S1132410FFF738FD0D4B1B6897F8271007F12502CD
S1132420184600F067FD00237B6002E07B680133FF
S11324307B607B68074A9342F8DD00230422022173
S11324400420FFF71FFDCDE7103B00000C00002027
S113245000D204003F420F0090B583B000AFFFF7F5
S1132460FBF878601A4B1B7883F00103DBB2002B76
S113247025D0184B00221A60174B00221A60174B04
S113248000221A8000F0A2FA012000F033FB00F0D1
S113249083FB0246124B1A60114B1B684FF0000479
S11324A01A4623460F4840F2E73101F061F903462A
S11324B00C461A460C4B1A60054B01221A707868B8
S11324C0FFF7D9F8002318460C37BD4690BD00BF6E
S11324D0F0020020E8020020EC020020E0020020CC
S11324E0E402002018FCFFFFF402002080B586B04F
S11324F000AF78600023FB757B68002B01D1222399
S11325002CE0FFF7A9F8386100F09AF9154B1B6825
S11325107A689A4201D10123FB75786800F03AF990
S1132520F860FB68002B04D03869FFF7A4F8FB6857
S113253014E0FB7D002B06D00A4B1B68002B02D055
S113254000F066F906E0074B1B68002B02D102205D
S113255000F0FCFA3869FFF78EF8002318461837A4
S1132560BD4680BDE802002080B58AB000AF0346B6
S1132570FB71FB7903F00103002B0ED0544B1B8835
S11325809BB201339AB2524B1A8000F059F9514B65
S11325901B68002B01D000F03BF9FB7903F0020328
S11325A0002B00F0918000233B6200F039FAF861BF
S11325B0494B1B68FA69D31A3B62FFF74DF87862FE
S11325C060E03B6ABB61434B1B687B61414B1B680A
S11325D03B61414AFB6913600FE07B691A793B69EF
S11325E01B799A4201D93B697B613B695B69BA6992
S11325F0D31ABB613B699B683B613B69002B04D0E8
S11326003B695B69BA699A42E7D2786AFFF733F8A3
S11326107B695B693A6AD31A3B627B6900225A611F
S1132620FFF71AF87862786900F0B4F8786AFFF76F
S113263022F87B691B69002B0BD0FFF70DF8786239
S11326407B691B691946786900F048F8786AFFF7D6
S113265012F87B69DB68002B06D07B69DB687A693A
S1132660126811467869984700F0DAF9F860FA6858
S1132670FB69D31A3A6A13443B62FB68FB61FEF7B9
S1132680EBFF7862134B1B68002B05D0114B1B68C2
S11326905B693A6A9A4294D20E4B1B68002B0DD0A8
S11326A00C4B1B6859690B4B1B683A6A8A1A5A61AE
S11326B0094AFB69136000F0ABF802E0022000F065
S11326C045FA786AFEF7D7FF00BF2837BD4680BDBC
S11326D0E0020020E8020020EC02002080B487B071
S11326E000AF786039603B687B617B687A695A61C6
S11326F0274B1B68002B40D000233B61244B1B68F5
S1132700FB600CE0FB685B697A69D31A7B617B68C8
S11327107A695A61FB683B61FB689B68FB60FB68F4
S1132720002B13D0FB685B697A699A42EAD2FB6892
S11327305B69002BE6D0FB685B697A699A4205D134
S11327407B681A79FB681B799A42DBD83B69002BBA
S113275003D03B697A689A6002E00D4A7B68136093
S11327607B68FA689A60FB68002B0CD0FB685A6996
S11327707B69D21AFB685A6105E0054A7B681360DD
S11327807B6800229A6000BF1C37BD4680BC70473E
S1132790E802002080B485B000AF78600023FB60BD
S11327A01A4B1B68BB6004E0BB68FB60BB689B689A
S11327B0BB60BB68002B03D0BA687B689A42F3D134
S11327C0BA687B689A4201D0022319E0FB68002BA7
S11327D004D07B689A68FB689A6003E07B689B6816
S11327E00A4A13607B689B68002B08D07B689B684F
S11327F059697B685A697B689B680A445A6100235B
S113280018461437BD4680BC704700BFE80200205C
S113281080B582B000AF084B1B685A69074B1B6830
S113282013447B60022000F065F9786800F01AF91F
S113283000BF0837BD4680BDE8020020EC0200203E
S113284080B582B000AF00F0EBF87860164B1B68DF
S1132850002B22D0154B1B687A68D31A3B60124BAD
S11328601B685B693A689A420BD80F4B1B6859691D
S11328700D4B1B683A688A1A5A610C4A7B681360CC
S11328800EE0094B1B685B697A68D31A074A136028
S1132890054B1B6800225A6102E0044A7B681360FE
S11328A000BF0837BD4680BDE8020020EC020020CE
S11328B080B483B000AF0346FB7197F90730002B57
S11328C00BDBFB7903F01F02064997F907305B091C
S11328D0012000FA02F241F8232000BF0C37BD4664
S11328E080BC704700E100E080B483B000AF0346D1
S11328F0FB7197F90730002B0CDBFB7903F01F0207
S1132900074997F907305B09012000FA02F26033A6
S113291041F8232000BF0C37BD4680BC704700BF80
S113292000E100E080B400AF024B5B681846BD468E
S113293080BC70470000084080B483B000AF78606A
S1132940034A7B68536000BF0C37BD4680BC7047A8
S11329500000084080B483B000AF7860034A7B680D
S1132960936100BF0C37BD4680BC7047000008402F
S113297080B483B000AF7860054BDA697B68DB43D1
S113298003491340CB6100BF0C37BD4680BC704780
S11329900000084080B483B000AF7860054BDA696A
S11329A004497B681343CB6100BF0C37BD4680BC30
S11329B0704700BF0000084080B400AF024B1B69A1
S11329C01846BD4680BC70470000084080B582B000
S11329D000AF01211148FEF7D5FA01210F48FEF797
S11329E003FC0023BB7100237B7101233B713B1D5E
S11329F01846FFF7EFFA0720FFF7BAFF0720FFF7A3
S1132A00A9FF0020FFF798FF1E20FFF76DFF1E208F
S1132A10FFF74EFF00BF0837BD4680BD8016120089
S1132A2080B582B000AFFFF77DFF78600C4B1B7858
S1132A30DBB27B80FFF7C0FF034603F00103002BEA
S1132A4005D0FFF76FFF78607B8801337B807B883C
S1132A501A067B68134318460837BD4680BD00BF7D
S1132A60F802002080B584B000AF7860FFF7D8FF8B
S1132A70B8607B68FB60FFF79FFF034603F0040325
S1132A80002B0DD11A4B1B68B968184600F0EAF800
S1132A900346022B04D8164B1B68BA689A4222D10B
S1132AA0B968F86800F0DEF80346012B02D8BB6869
S1132AB00233FB600E4AFB6813600D4B1A68BB6857
S1132AC0D31AB3F1807F0BD2094B1B6823F07F43E9
S1132AD019460120FFF762FA022000F00BF802E029
S1132AE0022000F033F800BF1037BD4680BD00BFA0
S1132AF0FC02002080B584B000AF0346FB710023C4
S1132B00FB60FB7903F00103002B03D0FB6843F067
S1132B100103FB60FB7903F00203002B0DD00A4B89
S1132B201B78002B05D00420FFF714FF064B00226E
S1132B301A70FB6843F00403FB60F868FFF72AFF90
S1132B4000BF1037BD4680BD1000002080B584B0A2
S1132B5000AF0346FB710023FB60FB7903F0010324
S1132B60002B03D0FB6843F00103FB60FB7903F007
S1132B700203002B06D0FB6843F00403FB60054B03
S1132B8001221A70F868FFF7F3FE00BF1037BD4644
S1132B9080BD00BF1000002080B500AF0248FEF7E2
S1132BA087FB0346184680BD8016120080B584B0AA
S1132BB000AF0023FB730023BB60FEF74DFD78607C
S1132BC0FFF7FAFE38603B6803F00103002B27D0BF
S1132BD0224B1B78DBB21B06B3F17F4F03D1FB7B87
S1132BE043F00103FB731D4B1B78DBB20133DAB2F4
S1132BF01A4B1A701A4B1B68BB60184B1B78DBB25C
S1132C001B061A46BB689B1ABB60BB68B3F1807F86
S1132C1006D2B9680120FFF7C1F90220FFF76AFF65
S1132C203B6803F00403002B03D0FB7B43F0020357
S1132C30FB733B6803F005031846FFF78BFEFB7B31
S1132C40002B03D0FB7B1846FFF78EFC7868FEF759
S1132C5012FD00BF1037BD4680BD00BFF802002042
S1132C60FC02002080B483B000AF786039607A68D9
S1132C703B68D31A18460C37BD4680BC7047000029
S1132C80B0B58CB000AF786039608A4B07F10C04A2
S1132C901D460FCD0FC495E8030084E803007B684C
S1132CA0002B01D1844B00E13B68002B01D1834B05
S1132CB0FBE070220021786800F014FF3B681B6879
S1132CC07F4A93420AD17B687E4ADA647B687E4AF3
S1132CD05A627B684FF440229A6221E03B681B6889
S1132CE07A4A93420AD17B68794ADA647B68794AE2
S1132CF05A627B684FF450229A6211E03B681B6869
S1132D00754A93420AD17B68744ADA647B68744AD0
S1132D105A627B684FF460229A6201E0674BC4E018
S1132D207A683B6814461D460FCD0FC495E807002A
S1132D3084E807003B685B7D012B01D10123BB764E
S1132D403B689B7D002B02D10023BB8319E03B68C9
S1132D509B7D012B03D14FF40073BB8311E03B68CF
S1132D609B7D022B03D14FF48073BB8309E03B6846
S1132D709B7D032B03D14FF44073BB8301E04F4B86
S1132D8093E03B681B7D012B05D100237B764FF438
S1132D907A737B6102E03B689B687B610121514847
S1132DA0FEF722FA01215048FEF71EFA7B68DB6C1D
S1132DB001211846FEF718FA3B68DB68032B03D998
S1132DC03B68DB68102B01D93C4B6EE03B68DB6849
S1132DD0033BFB62FB6ADBB23B763B681B6807F193
S1132DE00C0211461846FFF74FF93B681B7D002B78
S1132DF00BD13B68DB7D002B07D13B681B681A684D
S1132E003B681B6842F480321A603B68DB7D002B10
S1132E1009D13B681B791B021A463B681B6842F0C8
S1132E200F025A6508E03B681B791B021A463B688F
S1132E301B6842F00B025A650121786800F0E0FA41
S1132E40B862BB6A002B01D0BB6A2EE0FEF704FC1B
S1132E507862264B1B7883F00103DBB2002B08D089
S1132E60224B01221A70786AFEF705FCFFF7F4FA88
S1132E7002E0786AFEF7FFFBFDF7FEFA7B681C337D
S1132E8000211846FDF79EFA0346002B01D0184B8B
S1132E900BE07B68203300211846FDF793FA0346C4
S1132EA0002B01D0124B00E0002318463037BD46FA
S1132EB0B0BD00BF2C3B0000012000F0022000F058
S1132EC000C000400002040001000C0000C40040E7
S1132ED00012040001000D0000C80040002204009C
S1132EE001000E004081040000D204000003002011
S1132EF0092000F080B58AB002AFF860B9607A604A
S1132F00FB68002B01D11B4B30E0FB681B7D012BC0
S1132F1001D1194B2AE0FEF79FFBB861FB6893F8D7
S1132F204830DBB2002B04D0B869FEF7A4FB134B86
S1132F301CE0FB68012283F84820B869FEF79BFB7C
S1132F407B68FB61FB69002B02D107F11403FB6171
S1132F5007F108010A4B00930123FA69F86800F0AD
S1132F6041FBF86800F0AAFBFB685B6C184620374D
S1132F70BD4680BD012000F0082000F0032000F0D1
S1132F80852F000080B485B000AFF860B9607A6026
S1132F90FB68BA685A64FB68012283F8502000BFBA
S1132FA01437BD4680BC704780B485B000AF7860EC
S1132FB039607B681B79FB607B681B68A04A93427D
S1132FC040F00981FB68002B1AD0FB68012B15D057
S1132FD0FB68022B10D0FB68032B0BD0FB68042B7F
S1132FE006D0FB68052B01D102230AE0FF2308E089
S1132FF0012306E0042304E0022302E0042300E0AA
S113300004233A681370FB68002B1AD0FB68012B69
S113301015D0FB68022B10D0FB68032B0BD0FB6888
S1133020042B06D0FB68052B01D102230AE0FF2301
S113303008E0012306E0042304E0022302E0042361
S113304000E004233A689370FB68002B1AD0FB68F5
S1133050012B15D0FB68022B10D0FB68032B0BD07F
S1133060FB68042B06D0FB68052B01D101230AE081
S1133070FF2308E0012306E0022304E0022302E028
S1133080042300E004233A681371FB68002B1AD070
S1133090FB68012B15D0FB68022B10D0FB68032BB7
S11330A00BD0FB68042B06D0FB68052B01D1012350
S11330B00AE0FF2308E0012306E0022304E00223E0
S11330C002E0042300E004233A689371FB68002BB8
S11330D01AD0FB68012B15D0FB68022B10D0FB68BB
S11330E0032B0BD0FB68042B06D0FB68052B01D106
S11330F000230AE0FF2308E0072306E00D2304E091
S11331000B2302E0072300E00A233A685370FB68AC
S1133110002B1AD0FB68012B15D0FB68022B10D0B2
S1133120FB68032B0BD0FB68042B06D0FB68052B34
S113313001D101230AE0FF2308E0082306E00C2361
S113314004E00A2302E0062300E00B233A68D3706C
S1133150FB68002B1AD0FB68012B15D0FB68022BEF
S113316010D0FB68032B0BD0FB68042B06D0FB6844
S1133170052B01D10D230AE0FF2308E00D2306E00F
S11331800F2304E0092302E0052300E00C233A683E
S11331905371FB68002B1AD0FB68012B15D0FB6818
S11331A0022B10D0FB68032B0BD0FB68042B06D03A
S11331B0FB68052B01D10E230AE0FF2308E00E2350
S11331C006E00E2304E0082302E0042300E00D23BC
S11331D03A68D3710AE17B681B681A4A934240F04B
S11331E09580FB68002B0BD0FB68012B06D0FB6895
S11331F0022B01D1032304E0FF2302E0032300E0B8
S113320002233A681370FB68002B0BD0FB68012B78
S113321006D0FB68022B01D1032304E0FF2302E064
S1133220032300E002233A689370FB68002B0FD05D
S1133230FB68012B0AD0FB68022B05D1052308E0AB
S113324000C0004000C40040FF2302E0032300E06C
S113325001233A681371FB68002B0BD0FB68012B28
S113326006D0FB68022B01D1052304E0FF2302E012
S1133270032300E001233A689371FB68002B0BD011
S1133280FB68012B06D0FB68022B01D1072304E065
S1133290FF2302E0002300E000233A685370FB6838
S11332A0002B0BD0FB68012B06D0FB68022B01D14D
S11332B0062304E0FF2302E0012300E001233A682F
S11332C0D370FB68002B0BD0FB68012B06D0FB6886
S11332D0022B01D1002304E0FF2302E0022300E0DB
S11332E007233A685371FB68002B0BD0FB68012B52
S11332F006D0FB68022B01D1012304E0FF2302E086
S1133300032300E008233A68D3716FE07B681B68ED
S1133310394A934268D1FB68002B06D0FB68012B25
S113332001D1012302E0FF2300E002233A68137075
S1133330FB68002B06D0FB68012B01D1012302E0BE
S1133340FF2300E002233A689370FB68002B06D049
S1133350FB68012B01D1012302E0FF2300E00223DB
S11333603A681371FB68002B06D0FB68012B01D16E
S1133370012302E0FF2300E002233A689371FB6813
S1133380002B06D0FB68012B01D1032302E0FF23AD
S113339000E002233A685370FB68002B06D0FB68F8
S11333A0012B01D1042302E0FF2300E003233A6848
S11333B0D370FB68002B06D0FB68012B01D10523D9
S11333C002E0FF2300E004233A685371FB68002BFA
S11333D006D0FB68012B01D1062302E0FF2300E0A5
S11333E005233A68D37101E0044B00E0002318463A
S11333F01437BD4680BC704700C80040022000F06E
S113340080B586B000AF78600B46FB7007F10C0303
S113341019467868FFF7C8FD78617B69002B01D0F5
S11334207B69AAE0BB7C1A467B68DA63FB7C1A469C
S11334307B681A64FB78002B6BD07B681B7D002BA8
S113344033D1387B7B7B194600230422FEF71AFD17
S1133450B87BFB7B194600230122FEF713FD7B6832
S11334609B7D002B03D07B689B7D012B07D1387C8F
S11334707B7C194600230422FEF704FD06E0387C19
S11334807B7C194601230422FEF7FCFC7B68DB7D70
S1133490002B71D17B68DB6BD8B27B681B6C19463F
S11334A001230422FEF7EEFC66E0387B7B7B1946A1
S11334B000230122FEF7E6FCB87BFB7B19460023C0
S11334C00422FEF7DFFC7B689B7D002B03D07B6826
S11334D09B7D012B07D1387C7B7C1946002302227B
S11334E0FEF7D0FC06E0387C7B7C194601230222DF
S11334F0FEF7C8FC7B68DB7D002B3DD17B68DB6B72
S1133500D8B27B681B6C194601230222FEF7BAFC71
S113351032E0387B7B7B194600230222FEF7B2FCA3
S1133520B87BFB7B194600230222FEF7ABFC7B68C9
S11335309B7D002B03D07B689B7D012B07D1387CBE
S11335407B7C194600230222FEF79CFC06E0387CB3
S11335507B7C194601230222FEF794FC7B68DB7D09
S1133560002B09D17B68DB6BD8B27B681B6C1946D6
S113357000230022FEF786FC002318461837BD46B8
S113358080BD80B586B000AFF860B9607A60FEF7A0
S113359063F878617B683B613B6900225A643B694C
S11335A0002283F848203B6900229A633B691B7D13
S11335B0012B04D13B6958331846FEF797FF3B694A
S11335C0DB6A002B06D03B69DB6A3A69526B002147
S11335D0386998477869FEF74EF80123184618377A
S11335E0BD4680BD80B58EB006AFF860B9607A6024
S11335F03B60FB68002283F85020FB683A685A63FA
S1133600FB681B684FF44062DA60FB68BA6ADA62EE
S1133610FB68DB68082B02D90123FB7501E000235A
S1133620FB75FB68DB68092B08D9FB681B6824332E
S1133630FB61FB681B683C33BB6114E0FB68DB681F
S1133640092B08D1FB681B681833FB61FB681B68F6
S11336503033BB6107E0FB681B681C33FB61FB680C
S11336601B683433BB61FB68186AFB68996AFB68A2
S11336700493114B0393FB7D02933B680193012355
S11336800093FB697A68FCF75CFFFB68D869FB6808
S1133690596A0023049300230393FB7D02933B6840
S11336A0019301230093BB68BA69FCF727FF00BFAD
S11336B02037BD4680BD00BF8335000080B582B091
S11336C000AF78600020FDF7E3FF0346002B0CD029
S11336D001E0FEF757F97B6893F85030DBB283F0D2
S11336E00103DBB2002BF4D109E000BF7B6893F83F
S11336F05030DBB283F00103DBB2002BF6D100BF04
S11337000837BD4680BD80B483B000AF78603960AF
S11337107B683A689A6100BF0C37BD4680BC70472D
S113372080B483B000AF78607B681B6918460C379F
S1133730BD4680BC7047000080B582B000AF0A4827
S1133740FFF7EEFF78607B6803F01003002B06D0D0
S113375010210548FFF7D7FF044B01221A7000BF60
S11337600837BD4680BD00BF0000014001030020B2
S113377053B94AB9002908BF00281CBF4FF0FF31D4
S11337804FF0FF3000F074B9ADF1080C6DE904CED0
S113379000F006F8DDF804E0DDE9022304B0704728
S11337A02DE9F0478C460446089E002B4BD18A42F3
S11337B0154667D9B2FA82F24AB1C2F1200701FA7A
S11337C002F320FA07F7954047EA030C94404FEAC6
S11337D0154EBCFBFEF71FFA85F80EFB17C307FB5B
S11337E008F9210C41EA0343994509D9EB1807F17B
S11337F0FF3180F01C81994540F21981023F2B442E
S1133800A3EB0903B3FBFEF00EFB103300FB08F13E
S1133810A4B244EA0344A14209D92C1900F1FF33AC
S113382080F00781A14240F2048102382C4440EA2E
S113383007400027641A1EB10023D440C6E90043A0
S11338403946BDE8F0878B4209D9002E00F0EC80A0
S11338500027C6E9000138463946BDE8F087B3FAC7
S113386083F7002F48D18B4202D3824200F2FB80BF
S1133870841A61EB030301209C46002EE0D0C6E9C4
S1133880004CDDE702B9FFDEB2FA82F2002A40F012
S11338908F800127491B4FEA15481FFA85F9B1FBB0
S11338A0F8FE08FB1E1109FB0EF04FEA144C4CEA1B
S11338B00143984207D9EB180EF1FF3102D2984226
S11338C000F2CD808E461B1AB3FBF8F008FB1033D0
S11338D009FB00F9A4B244EA0344A14507D92C1911
S11338E000F1FF3302D2A14500F2B6801846A4EBE2
S11338F0090440EA0E409EE7C7F12005BB4022FAC6
S113390005FC4CEA030C21FA05F44FEA1C4EB4FB07
S1133910FEF91FFA8CF80EFB194420FA05F3B9409E
S113392009FB08FA19430B0C43EA0444A24502FAC2
S113393007F200FA07F30BD91CEB040409F1FF307A
S113394080F08880A24540F28580A9F10209644490
S1133950A4EB0A04B4FBFEF00EFB104400FB08FACF
S113396089B241EA0444A24508D91CEB040400F1DD
S1133970FF316BD2A24569D90238644440EA094058
S1133980A0FB0289A4EB0A044C454146CE4654D31D
S113399051D0002E69D05A1A64EB0E0404FA05F5CE
S11339A022FA07F3FC401D43C6E90054002747E709
S11339B09540C2F1200321FA03F04FEA1548B0FB09
S11339C0F8F71FFA85F908FB170024FA03F391406E
S11339D007FB09FC0B43190C41EA00418C4504FA2E
S11339E002F407D9691807F1FF3031D28C452FD979
S11339F0023F2944A1EB0C01B1FBF8F008FB101CB9
S1133A0000FB09FE99B241EA0C418E4507D96918B9
S1133A1000F1FF3318D28E4516D902382944A1EBA0
S1133A200E0140EA07473AE73746304608E70F46B3
S1133A30E6E61846FBE64345ABD2B8EB020169EB78
S1133A400C0201389646A4E71846E8E7084695E7CD
S1133A500746CFE781467BE702382C4447E7AEF1BF
S1133A60020E2B442FE7384607E73746E8E600BF47
S1133A70704700BF08B5074B044613B10021AFF3EC
S1133A800080054B1868836A03B19847204600F00C
S1133A9031F800BF00000000443B000070B5002571
S1133AA00C4E0D4CA41BA410A54209D100F024F81F
S1133AB000250A4E0A4CA41BA410A54205D170BDD2
S1133AC056F8253098470135EEE756F825309847E3
S1133AD00135F2E774000020740000207400002017
S1133AE07800002003460244934200D1704703F853
S1133AF0011BF9E7FEE700BFF8B500BFF8BC08BC3E
S1133B009E467047F8B500BFF8BC08BC9E46704797
S1133B1000C40040010000000A000000080000008A
S1133B20000000000001000000000000050000008B
S1133B300000000040420F000501000000000000EA
S10F3B4000000000140000200000000041
S10B3B4CD0C5FF7F0100000059
S1133B54006CDC0200800000809FD5000006002079
S1133B64010000000000000000000000000000004C
S1133B74000000000000000000000000000000003D
S1133B84000000000000000000000000000000002D
S1133B94000000000000000000000000000000001D
S1133BA4000000000000000000000000000000000D
S1133BB400000000000000000000000000000000FD
S10F3BC40000000001010000DD00000012
S90301916A
